:1000000000200010C1000000E1000000E30000003B
:1000100000000000000000000000000000000000E0
:10002000000000000000000000000000E5000000EB
:100030000000000000000000E7000000990200003E
:10004000EB000000EB000000EB000000EB00000004
:10005000EB000000EB000000EB000000EB000000F4
:10006000EB000000EB000000EB000000EB000000E4
:10007000EB0000007D050000EB000000EB0000003D
:10008000EB000000EB000000EB000000EB000000C4
:10009000EB000000EB00000000000000000000008A
:1000A000EB000000EB000000EB000000000000008F
:1000B000EB000000EB000000EB000000EB00000094
:1000C0000549064A0020521A02DD043A8850FCDC39
:1000D00000F08CF900F0E8F80801001008030010A7
:1000E000FEE7FEE7FEE7FEE7FEE7FEE710B500F0FD
:1000F00047F8014B186010BD00010010032100B546
:100100001B4A83B0136F0B40022B1CD0032B0CD067
:10011000012B02D0174803B000BD136C1940F9D071
:10012000012923D1144B1868F5E79168126C13402C
:1001300016D0012B1AD11F200F4B08401B6801302D
:1001400001935843E7E71F21526AD30511401B0F63
:100150000A4A9B0001314900985800F091FADAE709
:100160001F2304480B4001335843D4E70020D2E753
:1001700000800440001BB7005C0800001C08000061
:1001800010B5FFF7BBFF024B996F00F079FA10BD75
:100190000080044043600023016082600361C3600B
:1001A00001207047F8B5C26803690E004168040079
:1001B000D31A00208B420ED2100000F0E7FAA76895
:1001C000256879433A006818310000F0E5FA01200B
:1001D000E3680133E360F8BDF8B504000369E26841
:1001E0000E0000209A420FD01800616800F0CEFA8D
:1001F000A768256879433A006918300000F0CCFA06
:100200000120236901332361F8BDC046802180228B
:10021000074B10B55C58520122435A5098227F393F
:10022000995007238360043BC3600D33836210BD84
:100230000080044070B500262025002A0DDD002333
:100240004469254204D0CC5C013304609A42F7DC57
:10025000D21AF618C918002AF1DC300070BDC04669
:1002600070B50E000400FFF749FF3101050000F0F2
:1002700007FAFF231E00010006408020E2680243C7
:10028000E2600A0A134026606360E3688343E36028
:10029000280000F0F5F970BD024A136801331360BD
:1002A0007047C04650010010F0B5DE4657464E4636
:1002B0004546E0B583B0FFF719FFFA213B4B8900B3
:1002C000186800F0DDF9C021394A0138506039481A
:1002D0000906036A384C1B021B0A0B430362002306
:1002E000936007331360A4210122344B20005A503D
:1002F00004315A50FFF78AFFE12120000902FFF77D
:10030000AFFF0323E3607E33A360013B23630C2232
:100310002B492000FFF78EFF2A4800F039F92A4BBD
:1003200098259B46294B2A4C9A462A4B2A4F994698
:100330002A4B2B4E9846AD00200000F083F9002890
:10034000FAD12368AB4215D009D8602B24D0612B99
:100350001CD1182251461848FFF76CFFECE7B34256
:100360000ED0204A934211D10A2239001248FFF7D9
:1003700061FFE1E70F2249460F48FFF75BFFDBE72C
:100380000E2241460C48FFF755FFD5E718221649C3
:100390000948FFF74FFFCFE759460F220648FFF7FE
:1003A00049FF210001A800F067F8C5E7000100102F
:1003B00010E000E000ED00E000800040004004405C
:1003C0006008000020A107007008000080080000FD
:1003D000380100109C080000BC080000AC080000B8
:1003E0006102000062020000C80800008E21202087
:1003F0001F4B89005A5810B582435A5000221A6286
:10040000C823C046013B002BFBD10121184A1364CD
:10041000516453645164536C1942FCD061238E21A2
:100420008020936089005358834353500121104A20
:10043000D3681942FCD00023116751675367516795
:1004400001210B4A536F1942FCD08E2380209B0060
:10045000D458C0002043D0508020D45840002043BE
:10046000D0509167B93B0349FF3BD15010BDC04606
:10047000008004405F0001007047C0460122024B2B
:100480001860024B1A7070470C0100100801001030
:1004900010B5064C064B60741B6820009B68DB6837
:1004A000984721000348FFF77DFE10BDF0020010C1
:1004B000F81FFF1F10010010084810B5C36802693B
:1004C000934209D0064C2100FFF786FE054B200021
:1004D0001B689B681B69984710BDC046240100102B
:1004E000F0020010F81FFF1F80228023F0B5C646DF
:1004F00005000C0020499B02885800B503438B502F
:10050000FFF7FCFD290000F0BBF800230327984605
:10051000012343449C463E00190001253200032379
:1005200090420ED001335218122BF9D1013561449B
:10053000F619212DF2D163460337102B17D0E04670
:10054000E6E74246033B590822600A00032911D816
:10055000F02608025B1AE021360192013040024386
:10056000013D1B03C9012A430B401343636004BCD4
:100570009046F0BD0322EBE700800440034B10B52A
:100580001B689B685B68984710BDC046F81FFF1F3B
:10059000F0B50024204D8BB00600082318221F4917
:1005A0002800FFF7F7FD2C61EC601D4D1D49082365
:1005B00018222800FFF7EEFD2C61EC6002AD2A0046
:1005C000194B83CB83C283CB83C203CB03C23000DE
:1005D000164E6946FFF788FF336801219B6868461D
:1005E0001B689847336828009B68DB69984780221E
:1005F0000F4B92011A6001230E4843740E4B446066
:10060000036033689B689B6898470C4B1C700C4BCD
:100610001C600BB0F0BDC04610010010300200108D
:100620002401001070010010E4080000F81FFF1FF3
:1006300000E100E0F0020010FF0F000008010010D0
:100640000C0100100B4B10B51A78002A0DD10A4A84
:100650000123D1688C4611698C4504D0010010003B
:10066000FFF7BAFD0023180010BD00221A70034BDB
:100670001B78F8E708010010100100100C010010B1
:10068000002243088B4274D303098B425FD3030AD1
:100690008B4244D3030B8B4228D3030C8B420DD3E4
:1006A000FF22090212BA030C8B4202D31212090272
:1006B00065D0030B8B4219D300E0090AC30B8B42B0
:1006C00001D3CB03C01A5241830B8B4201D38B035E
:1006D000C01A5241430B8B4201D34B03C01A524103
:1006E000030B8B4201D30B03C01A5241C30A8B4246
:1006F00001D3CB02C01A5241830A8B4201D38B0231
:10070000C01A5241430A8B4201D34B02C01A5241D4
:10071000030A8B4201D30B02C01A5241CDD2C30946
:100720008B4201D3CB01C01A524183098B4201D3C2
:100730008B01C01A524143098B4201D34B01C01AAD
:10074000524103098B4201D30B01C01A5241C30825
:100750008B4201D3CB00C01A524183088B4201D394
:100760008B00C01A524143088B4201D34B00C01A80
:100770005241411A00D20146524110467047FFE7EC
:1007800001B5002000F006F802BDC0460029F7D0F0
:1007900076E770477047C046F0B505000F2A2FD99D
:1007A0000B0003439B0734D116000C000300103EDE
:1007B000350901352D01451927681F6067685F609D
:1007C000A7689F60E7681034DF6010339D42F3D163
:1007D0000F239E431036851989191340032B1AD90C
:1007E0001E1F0023B4080134A400CF58EF50043377
:1007F000A342FAD10324A643331D2240C918ED18A1
:10080000002A05D00023CC5CEC5401339342FAD18A
:10081000F0BD0500F6E71A00F2E7C0460000000050
:10082000C027090090051000C05C1500F0B31A0045
:10083000200B2000009F2400E0322900C0C62D00BC
:1008400050973100E06735007038390000093D00ED
:100850004016400080234300C0304600001BB70014
:10086000537461727465642075700A0D0000000095
:10087000424D53204865617274626561740D0A00CF
:10088000424D532044697363686172676520526505
:1008900073706F6E73650D0A00000000424D5320A7
:1008A0005061636B2053746174757300424D532023
:1008B00043656C6C2054656D70730000424D53208D
:1008C0004572726F72730000556E7265636F676E6A
:1008D000697A65642043414E206D65737361676575
:1008E0000000000091040000B90400007D04000035
:1008F00000000000000000000000000000000000F8
:0409000000000000F3
:08090400BCF7FF7F01000000B9
:04090C00001BB70015
:04000003000000C138
:00000001FF
