:1000000000200010C1000000E1000000E30000003B
:1000100000000000000000000000000000000000E0
:10002000000000000000000000000000E5000000EB
:100030000000000000000000E7000000E1040000F4
:10004000EB000000EB000000EB000000EB00000004
:10005000EB000000EB000000EB000000EB000000F4
:10006000EB000000EB000000EB000000EB000000E4
:10007000EB00000099030000EB000000EB00000023
:10008000EB000000EB000000EB000000EB000000C4
:10009000EB000000EB00000000000000000000008A
:1000A000EB000000EB000000EB000000000000008F
:1000B000EB000000EB000000EB000000EB00000094
:1000C0000549064A0020521A02DD043A8850FCDC39
:1000D00000F0F8FA00F0B0FA080100100403001074
:1000E000FEE7FEE7FEE7FEE7FEE7FEE710B500F0FD
:1000F00047F8014B186010BD00010010032100B546
:100100001B4A83B0136F0B40022B1CD0032B0CD067
:10011000012B02D0174803B000BD136C1940F9D071
:10012000012923D1144B1868F5E79168126C13402C
:1001300016D0012B1AD11F200F4B08401B6801302D
:1001400001935843E7E71F21526AD30511401B0F63
:100150000A4A9B0001314900985800F005FBDAE794
:100160001F2304480B4001335843D4E70020D2E753
:1001700000800440001BB700A40A00002C0A000005
:1001800010B5FFF7BBFF024B996F00F0EDFA10BD01
:100190000080044043600023016082600361C3600B
:1001A00001207047F8B5C26803690E004168040079
:1001B000D31A00208B420ED2100000F05BFBA76820
:1001C000256879433A006818310000F075FB01207A
:1001D000E3680133E360F8BDF8B504000369E26841
:1001E0000E0000209A420FD01800616800F042FB18
:1001F000A768256879433A006918300000F05CFB75
:100200000120236901332361F8BDC046802180228B
:10021000074B10B55C58520122435A5098227F393F
:10022000995007238360043BC3600D33836210BD84
:100230000080044070B500262025002A0DDD002333
:100240004469254204D0CC5C013304609A42F7DC57
:10025000D21AF618C918002AF1DC300070BDC04669
:1002600070B50E000400FFF749FF3101050000F0F2
:100270007BFAFF231E00010006408020E268024353
:10028000E2600A0A134026606360E3688343E36028
:10029000280000F069FA70BD0122024B1860024B81
:1002A0001A7070470C0100100801001010B5064CC0
:1002B000064B60741B6820009B68DB689847210030
:1002C0000348FFF76FFF10BDD0020010F81FFF1F9B
:1002D00010010010084810B5C3680269934209D0A4
:1002E000064C2100FFF778FF054B20001B689B6838
:1002F0001B69984710BDC04624010010D0020010B1
:10030000F81FFF1F80228023F0B5C64605000C00B1
:1003100020499B02885800B503438B50FFF7EEFE3F
:10032000290000F021FA00230327984601234344C3
:100330009C463E00190001253200032390420ED056
:1003400001335218122BF9D101356144F619212DD0
:10035000F2D163460337102B17D0E046E6E742465A
:10036000033B590822600A00032911D8F02608022D
:100370005B1AE0213601920130400243013D1B032C
:10038000C9012A430B401343636004BC9046F0BD8F
:100390000322EBE700800440034B10B51B689B6809
:1003A0005B68984710BDC046F81FFF1FF0B50024DA
:1003B000204D8BB00600082318221F492800FFF7A4
:1003C000E9FE2C61EC601D4D1D4908231822280010
:1003D000FFF7E0FE2C61EC6002AD2A00194B83CBE5
:1003E00083C283CB83C203CB03C23000164E69465F
:1003F000FFF788FF336801219B6868461B689847B0
:10040000336828009B68DB69984780220F4B920174
:100410001A6001230E4843740E4B44600360336836
:100420009B689B6898470C4B1C700C4B1C600BB076
:10043000F0BDC04610010010100200102401001091
:10044000500100106C0A0000F81FFF1F00E100E0DF
:10045000D0020010FF0F0000080100100C01001076
:100460000B4B10B51A78002A0DD10A4A0123D16826
:100470008C4611698C4504D001001000FFF7ACFEDA
:100480000023180010BD00221A70034B1B78F8E7F8
:1004900008010010100100100C01001010B50D4CE7
:1004A00082B069460A2200F003FA14220A492000A9
:1004B000FFF7C0FE684600F041FA694602002000DE
:1004C000FFF7B8FE022205492000FFF7B3FE02B095
:1004D00010BDC04600800040EC0B0000040C000082
:1004E000024A1368013313607047C04600030010CE
:1004F00030B53D4C83B02000FFF7B2FF00281DD17E
:1005000098222368920093423DD019D8602B23D0C3
:10051000612B3ED11822354901AD3548FFF78AFEDF
:100520002100280000F01CF92B78002B50D0012B63
:1005300004D105222F492E48FFF77CFE03B030BDC1
:100540002D4A934219D02D4A934222D10A222C4996
:100550002748FFF76FFEF1E70F222A492448FFF7EB
:1005600069FE210001A800F0F3F86B461B79052B0A
:1005700034D8254A9B00D3589F460E2223491C4855
:10058000FFF758FEDAE70F2221491948FFF752FE1C
:10059000D4E718221F491648FFF74CFECEE7142275
:1005A0001D491348FFF746FE6B46D888FFF776FFD4
:1005B000C4E712221949F4E713221949F1E714227A
:1005C0001849EEE711221849EBE710221749E8E72E
:1005D000092217490648FFF72DFEAFE731221549DA
:1005E0000348FFF727FEA9E7E80200106C0B0000A4
:1005F000008000408C0B00006102000062020000DD
:10060000B40B0000A80A00008C0A0000A40B000034
:10061000940B0000C00B00000C0B0000F80A000057
:10062000E40A0000CC0A0000B80A0000240B000015
:10063000880B0000380B000010B5FFF757FDFA21BA
:10064000194B8900186800F08FF8C021174A01384B
:10065000506017480906036A164C1B021B0A0B431D
:1006600003620023936007331360A4210122124B1D
:1006700020005A5004315A50FFF7C8FDE1212000F4
:100680000902FFF7EDFD0323E3607E33A360013B26
:1006900023630C2209492000FFF7CCFD0848FFF72F
:1006A00085FEFFF725FFFCE70001001010E000E0E9
:1006B00000ED00E00080004000400440DC0B000042
:1006C00020A107008E2120201F4B89005A5810B509
:1006D00082435A5000221A62C823C046013B002BB5
:1006E000FBD10121184A1364516453645164536C63
:1006F0001942FCD061238E218020936089005358D9
:10070000834353500121104AD3681942FCD000237F
:10071000116751675367516701210B4A536F1942A3
:10072000FCD08E2380209B00D458C0002043D050A2
:100730008020D45840002043D0509167B93B0349F2
:10074000FF3BD15010BDC046008004405F00010057
:10075000CB685A0FDB009B0D027043807047C04688
:10076000CB68DB0F03707047002243088B4274D3C1
:1007700003098B425FD3030A8B4244D3030B8B42A2
:1007800028D3030C8B420DD3FF22090212BA030CAB
:100790008B4202D31212090265D0030B8B4219D38C
:1007A00000E0090AC30B8B4201D3CB03C01A5241AC
:1007B000830B8B4201D38B03C01A5241430B8B42F4
:1007C00001D34B03C01A5241030B8B4201D30B03DD
:1007D000C01A5241C30A8B4201D3CB02C01A524104
:1007E000830A8B4201D38B02C01A5241430A8B42C7
:1007F00001D34B02C01A5241030A8B4201D30B02B0
:10080000C01A5241CDD2C3098B4201D3CB01C01AC9
:10081000524183098B4201D38B01C01A52414309D3
:100820008B4201D34B01C01A524103098B4201D3C1
:100830000B01C01A5241C3088B4201D3CB00C01A2E
:10084000524183088B4201D38B00C01A52414308A6
:100850008B4201D34B00C01A5241411A00D20146CB
:10086000524110467047FFE701B5002000F006F83E
:1008700002BDC0460029F7D076E770477047C046F2
:10088000931E10B50C00222B0ED80A2A05D0002189
:10089000611800F085F8200010BD0028F7DA2D233C
:1008A00040420B700121F3E7002300200B70F3E7B7
:1008B00010B5FFF7E5FF10BDF0B505000F2A2FD9E1
:1008C0000B0003439B0734D116000C000300103EBD
:1008D000350901352D01451927681F6067685F607C
:1008E000A7689F60E7681034DF6010339D42F3D142
:1008F0000F239E431036851989191340032B1AD9EB
:100900001E1F0023B4080134A400CF58EF50043355
:10091000A342FAD10324A643331D2240C918ED187F
:10092000002A05D00023CC5CEC5401339342FAD169
:10093000F0BD0500F6E71A00F2E7C04610B58307E0
:1009400025D00378002B24D00300032102E01A787D
:10095000002A1AD001330B42F9D119680E4A0F4C04
:100960008A188A43224206D1043319680A4A8A182F
:100970008A432242F8D01A001B78002B03D00132A0
:1009800011780029FBD1101A10BD181AFCE70300DA
:10099000E3E70020F8E7C046FFFEFEFE808080808F
:1009A000F0B54646D6464F46C0B58AB090466A4630
:1009B0001D4B0D00060013CB13C213CB13C213CB78
:1009C00013C21B78EA4613704346023B2F000024F3
:1009D000222B01D924E04C46631C30004146994645
:1009E000FFF748FF53465B5C30003B704146FFF722
:1009F000BBFE0137061EEED14B46E8540023002C07
:100A000007D0EA5C295DE9542A550133013CA34231
:100A1000F7DB28000AB01CBC90469946A246F0BD00
:100A20002C700020F6E7C046080C00000000000013
:100A3000C027090090051000C05C1500F0B31A0033
:100A4000200B2000009F2400E0322900C0C62D00AA
:100A500050973100E06735007038390000093D00DB
:100A60004016400080234300C0304600AD02000025
:100A7000D502000099020000000000000000000004
:100A8000000000000000000000000000C40500009D
:100A9000BE050000B8050000B20500009E0500007C
:100AA000CA050000001BB700424D53204865617223
:100AB00074626561740D0A00424D53205374617471
:100AC000653A20496E69740D0A000000424D5320BA
:100AD00053746174653A205374616E6462790D0ACF
:100AE00000000000424D532053746174653A204366
:100AF00068617267650D0A00424D5320537461743A
:100B0000653A2042616C616E63650000424D53207E
:100B100053746174653A20446973636861726765F0
:100B200000000000424D532053746174653A204523
:100B300072726F7200000000556E657870656374A4
:100B4000656420424D532053746174652E20596FA3
:100B5000752073686F756C64206E6576657220729F
:100B6000656163682068657265000000424D53202E
:100B700044697363686172676520526573706F6E54
:100B800073650D0A000000004E6F742052656164A9
:100B900079000000424D53205061636B2053746113
:100BA00074757300424D532043656C6C2054656D21
:100BB00070730000424D53204572726F72730000D3
:100BC000556E7265636F676E697A65642043414E46
:100BD000206D657373616765000000005374617276
:100BE0007465642075700A0D00000000424D5320AA
:100BF000534F432050657263656E746167653A2098
:100C0000000000000D0A0000303132333435363731
:100C100038396162636465666768696A6B6C6D6EBA
:100C20006F707172737475767778797A000000004E
:080C300090F4FF7F01000000B9
:040C3800001BB700E6
:04000003000000C138
:00000001FF
